{
  "_format": "hh-sol-artifact-1",
  "contractName": "StoryAdventure",
  "sourceName": "contracts/StoryAdventure.sol",
  "abi": [
    {
      "anonymous": false,
      "inputs": [
        {
          "indexed": true,
          "internalType": "address",
          "name": "owner",
          "type": "address"
        },
        {
          "indexed": false,
          "internalType": "string",
          "name": "prompt",
          "type": "string"
        }
      ],
      "name": "PromptAdded",
      "type": "event"
    },
    {
      "anonymous": false,
      "inputs": [
        {
          "indexed": true,
          "internalType": "address",
          "name": "owner",
          "type": "address"
        },
        {
          "indexed": false,
          "internalType": "string",
          "name": "initialPrompt",
          "type": "string"
        }
      ],
      "name": "StoryStarted",
      "type": "event"
    },
    {
      "inputs": [
        {
          "internalType": "string",
          "name": "promptText",
          "type": "string"
        }
      ],
      "name": "addStoryPrompt",
      "outputs": [],
      "stateMutability": "nonpayable",
      "type": "function"
    },
    {
      "inputs": [],
      "name": "deleteStory",
      "outputs": [],
      "stateMutability": "nonpayable",
      "type": "function"
    },
    {
      "inputs": [],
      "name": "getStoryHistory",
      "outputs": [
        {
          "components": [
            {
              "internalType": "string",
              "name": "prompt",
              "type": "string"
            },
            {
              "internalType": "uint256",
              "name": "timestamp",
              "type": "uint256"
            },
            {
              "internalType": "bool",
              "name": "selected",
              "type": "bool"
            }
          ],
          "internalType": "struct StoryAdventure.StoryPrompt[]",
          "name": "",
          "type": "tuple[]"
        }
      ],
      "stateMutability": "view",
      "type": "function"
    },
    {
      "inputs": [],
      "name": "hasStory",
      "outputs": [
        {
          "internalType": "bool",
          "name": "",
          "type": "bool"
        }
      ],
      "stateMutability": "view",
      "type": "function"
    },
    {
      "inputs": [
        {
          "internalType": "string",
          "name": "initialPrompt",
          "type": "string"
        }
      ],
      "name": "startNewStory",
      "outputs": [],
      "stateMutability": "nonpayable",
      "type": "function"
    }
  ],
  "bytecode": "0x6080806040523461001657610b5e908161001c8239f35b600080fdfe608060405260048036101561001357600080fd5b60003560e01c806360f1f7dc14610694578063b072297c1461065f578063c1b76aa01461042b578063e0ff3331146101855763ea79ee691461005457600080fd5b346101805761006236610707565b909133600052600060205261008460ff60016040600020015460a01c16610751565b3360005260006020526100a83360018060a01b036001604060002001541614610796565b6100b382151561092d565b604051906100c0826108d9565b6100cb368486610968565b8252426020830152600160408301523360005260006020526040600020805491600160401b83101561016b57600183018083558310156101565750610151927fe5e189de771014d1db6769c0d9d4c9bc4fa8dac73f65a19077d5a14be6298107949261014392600052600360206000209102016109d2565b604051918291339583610b00565b0390a2005b603290634e487b7160e01b6000525260246000fd5b604190634e487b7160e01b6000525260246000fd5b600080fd5b50346101805761019436610707565b90916101a182151561092d565b33600052602060008152604060002060019081810160ff815460a01c16610418575b50506040516101d1816108d9565b6101dc368688610968565b81524283820152816040820152604051906040820182811067ffffffffffffffff821117610403576040528282528360005b8181106103d8575050610220826109af565b5261022a816109af565b5060405190610238826108d9565b8152828101933385526040820193838552336000526000815260406000209251805192600160401b841161016b579082918554858755808610610312575b5050019083600052806000206000925b8484106102f6578a7f055581bf588ead4a1a98e64694950df8cea31f41fbb258e78992788d8820c5796101518c8c8c8c8c019160018060a01b0390511682549160ff60a01b9051151560a01b16916affffffffffffffffffffff60a81b1617179055604051918291339583610b00565b600383826103068a9451866109d2565b01920193019290610286565b90919250600391816003029160038304036103c35785600302906003820487036103c35750600087815285902085949392810191015b8181106103555750610276565b8293945061036681939293546107d8565b80610385575b5060008982015560006002820155019084939291610348565b601f9081811160011461039f575050600081555b3861036c565b6103ba600092848452898420920160051c82018c8301610812565b81835555610399565b601190634e487b7160e01b6000525260246000fd5b6040516103e4816108d9565b606081526000838201526000604082015282828601015201849061020e565b604186634e487b7160e01b6000525260246000fd5b610423600092610829565b5538806101c3565b50346101805760003660031901126101805733600052600060205260ff60016040600020015460a01c161561062a5733600052600060205260406000209081549067ffffffffffffffff821161016b57506040519061049060208260051b018361090b565b8082526020820190819360005260206000206000925b82841061055e5784866040519060208201926020835251809352604082019260408160051b84010191936000905b8282106104e15784840385f35b909192603f19858203018252855190606082518183528051809284015260005b8281106105485750506001926020928392604060809360008584860101528581015186850152015115156040830152601f80199101160101970192019201909492916104d4565b8060208092840101516080828701015201610501565b60405161056a816108d9565b6040516000845461057a816107d8565b808452906001811690811561060757506001146105cf575b5092600392826105a8602094600197038261090b565b8152848601548382015260ff600287015416151560408201528152019201930192906104a6565b6000868152602081209092505b8183106105f157505081016020016003610592565b60018160209254838688010152019201916105dc565b60ff191660208086019190915291151560051b8401909101915060039050610592565b60649060206040519162461bcd60e51b8352820152600e60248201526d139bc81cdd1bdc9e48199bdd5b9960921b6044820152fd5b3461018057600036600319011261018057336000526000602052602060ff60016040600020015460a01c166040519015158152f35b34610180576000366003190112610180573360005260006020526106c560ff60016040600020015460a01c16610751565b3360005260006020526106e93360018060a01b036001604060002001541614610796565b336000526000602052600060016040822061070381610829565b0155005b9060206003198301126101805760043567ffffffffffffffff9283821161018057806023830112156101805781600401359384116101805760248483010111610180576024019190565b1561075857565b60405162461bcd60e51b8152602060048201526016602482015275596f7520646f6e2774206861766520612073746f727960501b6044820152606490fd5b1561079d57565b60405162461bcd60e51b81526020600482015260136024820152722737ba103a34329039ba37b93c9037bbb732b960691b6044820152606490fd5b90600182811c92168015610808575b60208310146107f257565b634e487b7160e01b600052602260045260246000fd5b91607f16916107e7565b81811061081d575050565b60008155600101610812565b805460008083558161083a57505050565b600392826003029260038404036108c55781526020808220928301925b838110610865575050505050565b80836108728793546107d8565b8061088a575b50600182015583600282015501610857565b601f8082116001146108a257505081555b8338610878565b6108bc90848452868420920160051c820160018301610812565b8183555561089b565b634e487b7160e01b82526011600452602482fd5b6060810190811067ffffffffffffffff8211176108f557604052565b634e487b7160e01b600052604160045260246000fd5b90601f8019910116810190811067ffffffffffffffff8211176108f557604052565b1561093457565b60405162461bcd60e51b815260206004820152600c60248201526b115b5c1d1e481c1c9bdb5c1d60a21b6044820152606490fd5b92919267ffffffffffffffff82116108f55760405191610992601f8201601f19166020018461090b565b829481845281830111610180578281602093846000960137010152565b8051156109bc5760200190565b634e487b7160e01b600052603260045260246000fd5b815180519067ffffffffffffffff82116108f5576109f083546107d8565b601f8111610ac3575b50602090601f8311600114610a5757918060409492600294600092610a4c575b50508160011b916000199060031b1c19161781555b6020840151600182015501910151151560ff80198354169116179055565b015190503880610a19565b90601f1983169184600052816000209260005b818110610aab57509260019285926002966040989610610a92575b505050811b018155610a2e565b015160001960f88460031b161c19169055388080610a85565b92936020600181928786015181550195019301610a6a565b610af090846000526020600020601f850160051c81019160208610610af6575b601f0160051c0190610812565b386109f9565b9091508190610ae3565b90918060409360208452816020850152848401376000828201840152601f01601f191601019056fea2646970667358221220c634d5a432ad530057da883d88c48e7864df77d6ba247f14437442b40ccfb27a64736f6c63430008180033",
  "linkReferences": {},
  "deployedLinkReferences": {}
}