{
  "_format": "hh-sol-artifact-1",
  "contractName": "StoryAdventure",
  "sourceName": "contracts/StoryAdventure.sol",
  "abi": [
    {
      "anonymous": false,
      "inputs": [
        {
          "indexed": true,
          "internalType": "address",
          "name": "owner",
          "type": "address"
        },
        {
          "indexed": false,
          "internalType": "string",
          "name": "prompt",
          "type": "string"
        }
      ],
      "name": "PromptAdded",
      "type": "event"
    },
    {
      "anonymous": false,
      "inputs": [
        {
          "indexed": true,
          "internalType": "address",
          "name": "owner",
          "type": "address"
        },
        {
          "indexed": false,
          "internalType": "string",
          "name": "initialPrompt",
          "type": "string"
        }
      ],
      "name": "StoryStarted",
      "type": "event"
    },
    {
      "inputs": [
        {
          "internalType": "string",
          "name": "promptText",
          "type": "string"
        },
        {
          "internalType": "address",
          "name": "userAddress",
          "type": "address"
        }
      ],
      "name": "addStoryPrompt",
      "outputs": [],
      "stateMutability": "nonpayable",
      "type": "function"
    },
    {
      "inputs": [],
      "name": "deleteStory",
      "outputs": [],
      "stateMutability": "nonpayable",
      "type": "function"
    },
    {
      "inputs": [],
      "name": "getStoryHistory",
      "outputs": [
        {
          "components": [
            {
              "internalType": "string",
              "name": "prompt",
              "type": "string"
            },
            {
              "internalType": "uint256",
              "name": "timestamp",
              "type": "uint256"
            },
            {
              "internalType": "bool",
              "name": "selected",
              "type": "bool"
            }
          ],
          "internalType": "struct StoryAdventure.StoryPrompt[]",
          "name": "",
          "type": "tuple[]"
        }
      ],
      "stateMutability": "view",
      "type": "function"
    },
    {
      "inputs": [],
      "name": "hasStory",
      "outputs": [
        {
          "internalType": "bool",
          "name": "",
          "type": "bool"
        }
      ],
      "stateMutability": "view",
      "type": "function"
    },
    {
      "inputs": [
        {
          "internalType": "string",
          "name": "initialPrompt",
          "type": "string"
        }
      ],
      "name": "startNewStory",
      "outputs": [],
      "stateMutability": "nonpayable",
      "type": "function"
    }
  ],
  "bytecode": "0x6080806040523461001657610bf4908161001c8239f35b600080fdfe6080806040526004908136101561001557600080fd5b60003560e01c90816360f1f7dc1461075d57508063b072297c14610728578063b2aaddc11461056d578063c1b76aa0146103395763e0ff33311461005857600080fd5b34610334576020806003193601126103345767ffffffffffffffff9180358381116103345761008a9036908301610840565b92909361009884151561096f565b336000526000825260406000209060019182810160ff815460a01c16610321575b50506040516100c7816109aa565b6100d23687896109fe565b815242848201528260408201526040519160408301908382109082111761030c576040528282528360005b8181106102e157505061010f82610b9b565b5261011981610b9b565b5060405190610127826109aa565b8152828101933385526040820193838552336000526000815260406000209251805192600160401b84116102cc579082918554858755808610610206575b5050019083600052806000206000925b8484106101ea578a7f055581bf588ead4a1a98e64694950df8cea31f41fbb258e78992788d8820c5796101e58c8c8c8c8c019160018060a01b0390511682549160ff60a01b9051151560a01b16916affffffffffffffffffffff60a81b1617179055604051918291339583610b73565b0390a2005b600383826101fa8a945186610a45565b01920193019290610175565b90919250600391816003029160038304036102b75785600302906003820487036102b75750600087815285902085949392810191015b8181106102495750610165565b8293945061025a819392935461086e565b80610279575b506000898201556000600282015501908493929161023c565b601f90818111600114610293575050600081555b38610260565b6102ae600092848452898420920160051c82018c83016108a8565b8183555561028d565b601190634e487b7160e01b6000525260246000fd5b604190634e487b7160e01b6000525260246000fd5b6040516102ed816109aa565b60608152600083820152600060408201528282860101520184906100fd565b604186634e487b7160e01b6000525260246000fd5b61032c6000926108bf565b5538806100b9565b600080fd5b50346103345760003660031901126103345733600052600060205260ff60016040600020015460a01c16156105385733600052600060205260406000209081549067ffffffffffffffff82116102cc57506040519061039e60208260051b01836109dc565b8082526020820190819360005260206000206000925b82841061046c5784866040519060208201926020835251809352604082019260408160051b84010191936000905b8282106103ef5784840385f35b909192603f19858203018252855190606082518183528051809284015260005b8281106104565750506001926020928392604060809360008584860101528581015186850152015115156040830152601f80199101160101970192019201909492916103e2565b806020809284010151608082870101520161040f565b604051610478816109aa565b604051600084546104888161086e565b808452906001811690811561051557506001146104dd575b5092600392826104b660209460019703826109dc565b8152848601548382015260ff600287015416151560408201528152019201930192906103b4565b6000868152602081209092505b8183106104ff575050810160200160036104a0565b60018160209254838688010152019201916104ea565b60ff191660208086019190915291151560051b84019091019150600390506104a0565b60649060206040519162461bcd60e51b8352820152600e60248201526d139bc81cdd1bdc9e48199bdd5b9960921b6044820152fd5b503461033457604036600319011261033457803567ffffffffffffffff81116103345761059d9036908301610840565b6024356001600160a01b0381169290839003610334576105be82151561096f565b609682116106d85782600052600060205260ff60016040600020015460a01c161561069457604051936105f0856109aa565b6105fb3684846109fe565b8552426020860152600160408601528360005260006020526040600020805491600160401b8310156102cc576001830180835583101561067f575094610670917fe5e189de771014d1db6769c0d9d4c9bc4fa8dac73f65a19077d5a14be6298107959660005260036020600020910201610a45565b6101e560405192839283610b73565b603290634e487b7160e01b6000525260246000fd5b60405162461bcd60e51b8152602081860152601960248201527f5573657220646f65736e2774206861766520612073746f7279000000000000006044820152606490fd5b60405162461bcd60e51b8152602081860152602360248201527f50726f6d707420746f6f206c6f6e672c206d617820313530206368617261637460448201526265727360e81b6064820152608490fd5b3461033457600036600319011261033457336000526000602052602060ff60016040600020015460a01c166040519015158152f35b9050346103345760003660031901126103345733600052600060205260ff60016040600020015460a01c16156108075750336000818152602081905260409020600101546001600160a01b0316036107cd5733600052600060205260006001604082206107c9816108bf565b0155005b60649060206040519162461bcd60e51b835282015260136024820152722737ba103a34329039ba37b93c9037bbb732b960691b6044820152fd5b602060649262461bcd60e51b83528201526016602482015275596f7520646f6e2774206861766520612073746f727960501b6044820152fd5b9181601f840112156103345782359167ffffffffffffffff8311610334576020838186019501011161033457565b90600182811c9216801561089e575b602083101461088857565b634e487b7160e01b600052602260045260246000fd5b91607f169161087d565b8181106108b3575050565b600081556001016108a8565b80546000808355816108d057505050565b6003928260030292600384040361095b5781526020808220928301925b8381106108fb575050505050565b808361090887935461086e565b80610920575b506001820155836002820155016108ed565b601f80821160011461093857505081555b833861090e565b61095290848452868420920160051c8201600183016108a8565b81835555610931565b634e487b7160e01b82526011600452602482fd5b1561097657565b60405162461bcd60e51b815260206004820152600c60248201526b115b5c1d1e481c1c9bdb5c1d60a21b6044820152606490fd5b6060810190811067ffffffffffffffff8211176109c657604052565b634e487b7160e01b600052604160045260246000fd5b90601f8019910116810190811067ffffffffffffffff8211176109c657604052565b92919267ffffffffffffffff82116109c65760405191610a28601f8201601f1916602001846109dc565b829481845281830111610334578281602093846000960137010152565b815180519067ffffffffffffffff82116109c657610a63835461086e565b601f8111610b36575b50602090601f8311600114610aca57918060409492600294600092610abf575b50508160011b916000199060031b1c19161781555b6020840151600182015501910151151560ff80198354169116179055565b015190503880610a8c565b90601f1983169184600052816000209260005b818110610b1e57509260019285926002966040989610610b05575b505050811b018155610aa1565b015160001960f88460031b161c19169055388080610af8565b92936020600181928786015181550195019301610add565b610b6390846000526020600020601f850160051c81019160208610610b69575b601f0160051c01906108a8565b38610a6c565b9091508190610b56565b90918060409360208452816020850152848401376000828201840152601f01601f1916010190565b805115610ba85760200190565b634e487b7160e01b600052603260045260246000fdfea2646970667358221220a7be525931fe50855f9f65b941fe849f5949f204f9ddfb11b6551e66c0fc8ce664736f6c63430008180033",
  "linkReferences": {},
  "deployedLinkReferences": {}
}