{
  "_format": "hh-sol-artifact-1",
  "contractName": "StoryAdventure",
  "sourceName": "contracts/StoryAdventure.sol",
  "abi": [
    {
      "anonymous": false,
      "inputs": [
        {
          "indexed": true,
          "internalType": "address",
          "name": "owner",
          "type": "address"
        },
        {
          "indexed": false,
          "internalType": "string",
          "name": "prompt",
          "type": "string"
        }
      ],
      "name": "PromptAdded",
      "type": "event"
    },
    {
      "anonymous": false,
      "inputs": [
        {
          "indexed": true,
          "internalType": "address",
          "name": "owner",
          "type": "address"
        },
        {
          "indexed": false,
          "internalType": "string",
          "name": "initialPrompt",
          "type": "string"
        }
      ],
      "name": "StoryStarted",
      "type": "event"
    },
    {
      "inputs": [
        {
          "internalType": "string",
          "name": "promptText",
          "type": "string"
        },
        {
          "internalType": "address",
          "name": "userAddress",
          "type": "address"
        }
      ],
      "name": "addStoryPrompt",
      "outputs": [],
      "stateMutability": "nonpayable",
      "type": "function"
    },
    {
      "inputs": [],
      "name": "deleteStory",
      "outputs": [],
      "stateMutability": "nonpayable",
      "type": "function"
    },
    {
      "inputs": [],
      "name": "getStoryHistory",
      "outputs": [
        {
          "components": [
            {
              "internalType": "string",
              "name": "prompt",
              "type": "string"
            },
            {
              "internalType": "address",
              "name": "author",
              "type": "address"
            },
            {
              "internalType": "uint256",
              "name": "timestamp",
              "type": "uint256"
            },
            {
              "internalType": "bool",
              "name": "selected",
              "type": "bool"
            }
          ],
          "internalType": "struct StoryAdventure.StoryPrompt[]",
          "name": "",
          "type": "tuple[]"
        }
      ],
      "stateMutability": "view",
      "type": "function"
    },
    {
      "inputs": [],
      "name": "hasStory",
      "outputs": [
        {
          "internalType": "bool",
          "name": "",
          "type": "bool"
        }
      ],
      "stateMutability": "view",
      "type": "function"
    },
    {
      "inputs": [
        {
          "internalType": "string",
          "name": "initialPrompt",
          "type": "string"
        }
      ],
      "name": "startNewStory",
      "outputs": [],
      "stateMutability": "nonpayable",
      "type": "function"
    }
  ],
  "bytecode": "0x6080806040523461001657610c87908161001c8239f35b600080fdfe608080604052600436101561001357600080fd5b600090813560e01c90816360f1f7dc146107be57508063b072297c1461078d578063b2aaddc1146105be578063c1b76aa01461035c5763e0ff33311461005857600080fd5b34610359576020806003193601126103555767ffffffffffffffff6004358181116103515761008b90369060040161089c565b9190926100998315156109dd565b33855284815260408520856001918281019060ff825460a01c1661033f575b5050506040516100c781610a18565b6100d2368688610a6c565b815233838201524260408201526060908260608201526040519160408301838110878211176102ea5760405283835284895b8181106103125750505061011782610c2e565b5261012181610c2e565b506040519360608501908111858210176102fe57604052835281830192338452604081019282845233885287815260408820915190815191600160401b83116102ea5781908454848655808510610212575b500190838a52808a208a925b8484106101f6578b8b7f055581bf588ead4a1a98e64694950df8cea31f41fbb258e78992788d8820c5796101f08d8d8d8d8d019160018060a01b0390511682549160ff60a01b9051151560a01b16916affffffffffffffffffffff60a81b1617179055604051918291339583610c06565b0390a280f35b600483826102068a945186610ab3565b0192019301929061017f565b90915060026001600160fe1b0380831683036102d657851685036102c25790839291868d52838d209160021b8201918660021b015b828110610255575050610173565b600491929394508d61026782546108cf565b80610288575b50898201558d838201558d6003820155019084939291610247565b601f8082116001146102a057505081555b8d3861026d565b6102b990848452898420920160051c82018c8301610909565b81835555610299565b634e487b7160e01b8c52601160045260248cfd5b634e487b7160e01b8d52601160045260248dfd5b634e487b7160e01b8a52604160045260248afd5b634e487b7160e01b88526041600452602488fd5b60405161031e81610a18565b8381528b838201528b60408201528b84820152828287010152018590610104565b61034890610920565b558538806100b8565b8380fd5b5080fd5b80fd5b50346103595780600319360112610359573381528060205260ff600160408320015460a01c161561058857338152806020526040812080549167ffffffffffffffff831161057457604051926103b860208260051b0185610a4a565b8084526020840190819383526020832083925b82841061049a5786858760405192839260208401916020855251809252604084019160408160051b860101939282905b8282106104085786860387f35b919395509193603f198782030182528551608090805182845280518093850152875b83811061048457505060a08383602094938a8487966001990101528680851b0385820151168584015260408101516040840152606080910151151590830152601f80199101160101970192019201869594929391936103fb565b80602080928401015160a082880101520161042a565b6040516104a681610a18565b6040518684546104b5816108cf565b8084529060018116908115610551575060011461051b575b5092600492826104e36020946001970382610a4a565b8152848060a01b038587015416838201526002860154604082015260ff600387015416151560608201528152019201930192906103cb565b858952602089208992505b81831061053b575050810160200160046104cd565b6001816020925483868801015201920191610526565b60ff191660208086019190915291151560051b84019091019150600490506104cd565b634e487b7160e01b81526041600452602490fd5b60405162461bcd60e51b815260206004820152600e60248201526d139bc81cdd1bdc9e48199bdd5b9960921b6044820152606490fd5b50346103595760403660031901126103595760043567ffffffffffffffff8111610355576105f090369060040161089c565b6024356001600160a01b0381169290839003610351576106118215156109dd565b6096821161073c578284528360205260ff600160408620015460a01c16156106f75760405161063f81610a18565b61064a368484610a6c565b8152336020820152426040820152600160608201528385528460205260408520805490600160401b8210156106e357600182018082558210156106cf57916106c0917fe5e189de771014d1db6769c0d9d4c9bc4fa8dac73f65a19077d5a14be62981079594938852602088209060021b01610ab3565b6101f060405192839283610c06565b634e487b7160e01b87526032600452602487fd5b634e487b7160e01b87526041600452602487fd5b60405162461bcd60e51b815260206004820152601960248201527f5573657220646f65736e2774206861766520612073746f7279000000000000006044820152606490fd5b60405162461bcd60e51b815260206004820152602360248201527f50726f6d707420746f6f206c6f6e672c206d617820313530206368617261637460448201526265727360e81b6064820152608490fd5b503461035957806003193601126103595760ff6001604060209333815280855220015460a01c166040519015158152f35b9050346103555781600319360112610355573382528160205260ff600160408420015460a01c1615610861575033808252602082905260408220600101546001600160a01b03160361082657338152806020528060016040822061082181610920565b015580f35b60405162461bcd60e51b81526020600482015260136024820152722737ba103a34329039ba37b93c9037bbb732b960691b6044820152606490fd5b62461bcd60e51b8152602060048201526016602482015275596f7520646f6e2774206861766520612073746f727960501b6044820152606490fd5b9181601f840112156108ca5782359167ffffffffffffffff83116108ca57602083818601950101116108ca57565b600080fd5b90600182811c921680156108ff575b60208310146108e957565b634e487b7160e01b600052602260045260246000fd5b91607f16916108de565b818110610914575050565b60008155600101610909565b8054906000908181558261093357505050565b6002906001600160fe1b03841684036109c957825260208083209360021b8401935b848110610963575050505050565b8084610971600493546108cf565b8061098e575b506001820155848482015584600382015501610955565b601f8082116001146109a657505081555b8438610977565b6109c090848452868420920160051c820160018301610909565b8183555561099f565b634e487b7160e01b83526011600452602483fd5b156109e457565b60405162461bcd60e51b815260206004820152600c60248201526b115b5c1d1e481c1c9bdb5c1d60a21b6044820152606490fd5b6080810190811067ffffffffffffffff821117610a3457604052565b634e487b7160e01b600052604160045260246000fd5b90601f8019910116810190811067ffffffffffffffff821117610a3457604052565b92919267ffffffffffffffff8211610a345760405191610a96601f8201601f191660200184610a4a565b8294818452818301116108ca578281602093846000960137010152565b815180519067ffffffffffffffff8211610a3457610ad183546108cf565b601f8111610bc9575b50602090601f8311600114610b5e57918060609492600394600092610b53575b50508160011b9160001990851b1c19161781555b6001810160018060a01b036020860151166bffffffffffffffffffffffff60a01b8254161790556040840151600282015501910151151560ff80198354169116179055565b015190503880610afa565b90601f1983169184600052816000209260005b818110610bb157509260019285926003966060989610610b99575b505050811b018155610b0e565b015160001983871b60f8161c19169055388080610b8c565b92936020600181928786015181550195019301610b71565b610bf690846000526020600020601f850160051c81019160208610610bfc575b601f0160051c0190610909565b38610ada565b9091508190610be9565b90918060409360208452816020850152848401376000828201840152601f01601f1916010190565b805115610c3b5760200190565b634e487b7160e01b600052603260045260246000fdfea264697066735822122083f58370e5080d9cc3ee45b5b14eff3c789e4be8b5f6eedb3ef3e98025e613be64736f6c63430008180033",
  "linkReferences": {},
  "deployedLinkReferences": {}
}