{
  "_format": "hh-sol-artifact-1",
  "contractName": "StoryAdventure",
  "sourceName": "contracts/StoryAdventure.sol",
  "abi": [
    {
      "anonymous": false,
      "inputs": [
        {
          "indexed": true,
          "internalType": "address",
          "name": "owner",
          "type": "address"
        },
        {
          "indexed": false,
          "internalType": "string",
          "name": "prompt",
          "type": "string"
        }
      ],
      "name": "PromptAdded",
      "type": "event"
    },
    {
      "anonymous": false,
      "inputs": [
        {
          "indexed": true,
          "internalType": "address",
          "name": "owner",
          "type": "address"
        },
        {
          "indexed": false,
          "internalType": "string",
          "name": "initialPrompt",
          "type": "string"
        }
      ],
      "name": "StoryStarted",
      "type": "event"
    },
    {
      "inputs": [
        {
          "internalType": "string",
          "name": "promptText",
          "type": "string"
        },
        {
          "internalType": "address",
          "name": "userAddress",
          "type": "address"
        }
      ],
      "name": "addStoryPrompt",
      "outputs": [],
      "stateMutability": "nonpayable",
      "type": "function"
    },
    {
      "inputs": [],
      "name": "deleteStory",
      "outputs": [],
      "stateMutability": "nonpayable",
      "type": "function"
    },
    {
      "inputs": [],
      "name": "getStats",
      "outputs": [
        {
          "internalType": "uint256",
          "name": "stories",
          "type": "uint256"
        },
        {
          "internalType": "uint256",
          "name": "prompts",
          "type": "uint256"
        }
      ],
      "stateMutability": "view",
      "type": "function"
    },
    {
      "inputs": [],
      "name": "getStoryHistory",
      "outputs": [
        {
          "components": [
            {
              "internalType": "string",
              "name": "prompt",
              "type": "string"
            },
            {
              "internalType": "address",
              "name": "author",
              "type": "address"
            },
            {
              "internalType": "uint256",
              "name": "timestamp",
              "type": "uint256"
            },
            {
              "internalType": "bool",
              "name": "selected",
              "type": "bool"
            }
          ],
          "internalType": "struct StoryAdventure.StoryPrompt[]",
          "name": "",
          "type": "tuple[]"
        }
      ],
      "stateMutability": "view",
      "type": "function"
    },
    {
      "inputs": [],
      "name": "hasStory",
      "outputs": [
        {
          "internalType": "bool",
          "name": "",
          "type": "bool"
        }
      ],
      "stateMutability": "view",
      "type": "function"
    },
    {
      "inputs": [
        {
          "internalType": "string",
          "name": "initialPrompt",
          "type": "string"
        }
      ],
      "name": "startNewStory",
      "outputs": [],
      "stateMutability": "nonpayable",
      "type": "function"
    },
    {
      "inputs": [],
      "name": "totalPromptsAdded",
      "outputs": [
        {
          "internalType": "uint256",
          "name": "",
          "type": "uint256"
        }
      ],
      "stateMutability": "view",
      "type": "function"
    },
    {
      "inputs": [],
      "name": "totalStoriesCreated",
      "outputs": [
        {
          "internalType": "uint256",
          "name": "",
          "type": "uint256"
        }
      ],
      "stateMutability": "view",
      "type": "function"
    }
  ],
  "bytecode": "0x6080806040523461001657610d5f908161001c8239f35b600080fdfe608080604052600436101561001357600080fd5b600090813560e01c9081632dc93327146109355750806360f1f7dc146108545780636b2dc99a14610836578063b072297c14610804578063b2aaddc114610625578063c1b76aa0146103c1578063c59d48471461039d5763e0ff33311461007957600080fd5b3461039a576020806003193601126103965767ffffffffffffffff600435818111610392576100ac90369060040161094f565b9190926100ba831515610a90565b33855260029081815260019260ff8460408920015460a01c16600014610381573387528282528684604082206100ef816109d3565b01555b6040516100fe81610acb565b610109368789610b1f565b8152338382015242604082015260609085606082015260405191604083018381108582111761032c57604052868352848a5b8181106103545750505061014e82610d06565b5261015881610d06565b50604051916060830190811183821017610340576040528152818101923384526040820192858452338952818152604089209251805192600160401b841161032c578454848655839291818610610257575b50500190838a52808a208a925b84841061023b578b8b7f055581bf588ead4a1a98e64694950df8cea31f41fbb258e78992788d8820c5796102358d8d8d8d828e019160018060a01b0390511682549160ff60a01b9051151560a01b16916affffffffffffffffffffff60a81b16171790556102258154610cb9565b9055604051918291339583610cde565b0390a280f35b6004838261024b8c945186610b66565b019201930192906101b7565b919250906001600160fe1b038083168303610318578516850361030457858c52838c20849392821b8101919086821b015b82811061029557506101aa565b600491929394508d6102a78254610982565b806102c8575b508b8201558d838201558d6003820155019084939291610288565b601f8d8183116001146102e25750505081555b8d386102ad565b6102fb918585528a8520930160051c83019083016109bc565b818355556102db565b634e487b7160e01b8c52601160045260248cfd5b634e487b7160e01b8d52601160045260248dfd5b634e487b7160e01b8b52604160045260248bfd5b634e487b7160e01b89526041600452602489fd5b60405161036081610acb565b8381528c838201528c60408201528c8482015282828701015201859061013b565b61038b8754610cb9565b87556100f2565b8380fd5b5080fd5b80fd5b503461039a578060031936011261039a576040905460015482519182526020820152f35b503461039a578060031936011261039a57338152600260205260ff600160408320015460a01c16156105ef5733815260026020526040812080549167ffffffffffffffff83116105db576040519261041f60208260051b0185610afd565b8084526020840190819383526020832083925b8284106105015786858760405192839260208401916020855251809252604084019160408160051b860101939282905b82821061046f5786860387f35b919395509193603f198782030182528551608090805182845280518093850152875b8381106104eb57505060a08383602094938a8487966001990101528680851b0385820151168584015260408101516040840152606080910151151590830152601f8019910116010197019201920186959492939193610462565b80602080928401015160a0828801015201610491565b60405161050d81610acb565b60405186845461051c81610982565b80845290600181169081156105b85750600114610582575b50926004928261054a6020946001970382610afd565b8152848060a01b038587015416838201526002860154604082015260ff60038701541615156060820152815201920193019290610432565b858952602089208992505b8183106105a257505081016020016004610534565b600181602092548386880101520192019161058d565b60ff191660208086019190915291151560051b8401909101915060049050610534565b634e487b7160e01b81526041600452602490fd5b60405162461bcd60e51b815260206004820152600e60248201526d139bc81cdd1bdc9e48199bdd5b9960921b6044820152606490fd5b503461039a57604036600319011261039a5760043567ffffffffffffffff81116103965761065790369060040161094f565b6024356001600160a01b038116929083900361039257610678821515610a90565b609682116107b357828452600260205260ff600160408620015460a01c161561076e576040516106a781610acb565b6106b2368484610b1f565b815233602082015242604082015260016060820152838552600260205260408520805490600160401b82101561075a57600182018082558210156107465791610729917fe5e189de771014d1db6769c0d9d4c9bc4fa8dac73f65a19077d5a14be62981079594938852602088209060021b01610b66565b610734600154610cb9565b60015561023560405192839283610cde565b634e487b7160e01b87526032600452602487fd5b634e487b7160e01b87526041600452602487fd5b60405162461bcd60e51b815260206004820152601960248201527f5573657220646f65736e2774206861766520612073746f7279000000000000006044820152606490fd5b60405162461bcd60e51b815260206004820152602360248201527f50726f6d707420746f6f206c6f6e672c206d617820313530206368617261637460448201526265727360e81b6064820152608490fd5b503461039a578060031936011261039a5760ff600160406020933381526002855220015460a01c166040519015158152f35b503461039a578060031936011261039a576020600154604051908152f35b503461039a578060031936011261039a57338152600260205260ff600160408320015460a01c16156108f75733808252600260205260408220600101546001600160a01b0316036108bc573381526002602052806001604082206108b7816109d3565b015580f35b60405162461bcd60e51b81526020600482015260136024820152722737ba103a34329039ba37b93c9037bbb732b960691b6044820152606490fd5b60405162461bcd60e51b8152602060048201526016602482015275596f7520646f6e2774206861766520612073746f727960501b6044820152606490fd5b905034610396578160031936011261039657602091548152f35b9181601f8401121561097d5782359167ffffffffffffffff831161097d576020838186019501011161097d57565b600080fd5b90600182811c921680156109b2575b602083101461099c57565b634e487b7160e01b600052602260045260246000fd5b91607f1691610991565b8181106109c7575050565b600081556001016109bc565b805490600090818155826109e657505050565b6002906001600160fe1b0384168403610a7c57825260208083209360021b8401935b848110610a16575050505050565b8084610a2460049354610982565b80610a41575b506001820155848482015584600382015501610a08565b601f808211600114610a5957505081555b8438610a2a565b610a7390848452868420920160051c8201600183016109bc565b81835555610a52565b634e487b7160e01b83526011600452602483fd5b15610a9757565b60405162461bcd60e51b815260206004820152600c60248201526b115b5c1d1e481c1c9bdb5c1d60a21b6044820152606490fd5b6080810190811067ffffffffffffffff821117610ae757604052565b634e487b7160e01b600052604160045260246000fd5b90601f8019910116810190811067ffffffffffffffff821117610ae757604052565b92919267ffffffffffffffff8211610ae75760405191610b49601f8201601f191660200184610afd565b82948184528183011161097d578281602093846000960137010152565b815180519067ffffffffffffffff8211610ae757610b848354610982565b601f8111610c7c575b50602090601f8311600114610c1157918060609492600394600092610c06575b50508160011b9160001990851b1c19161781555b6001810160018060a01b036020860151166bffffffffffffffffffffffff60a01b8254161790556040840151600282015501910151151560ff80198354169116179055565b015190503880610bad565b90601f1983169184600052816000209260005b818110610c6457509260019285926003966060989610610c4c575b505050811b018155610bc1565b015160001983871b60f8161c19169055388080610c3f565b92936020600181928786015181550195019301610c24565b610ca990846000526020600020601f850160051c81019160208610610caf575b601f0160051c01906109bc565b38610b8d565b9091508190610c9c565b6000198114610cc85760010190565b634e487b7160e01b600052601160045260246000fd5b90918060409360208452816020850152848401376000828201840152601f01601f1916010190565b805115610d135760200190565b634e487b7160e01b600052603260045260246000fdfea2646970667358221220280f9e9cca5618e6c5e46861125eea69d5e0f0ab9b454a617bebdc9988b2c99464736f6c63430008180033",
  "linkReferences": {},
  "deployedLinkReferences": {}
}